{
  "contractName": "PlantManager",
  "abi": [
    {
      "inputs": [],
      "payable": false,
      "stateMutability": "nonpayable",
      "type": "constructor"
    },
    {
      "anonymous": false,
      "inputs": [
        {
          "indexed": false,
          "internalType": "uint256",
          "name": "_id",
          "type": "uint256"
        },
        {
          "indexed": true,
          "internalType": "address",
          "name": "_owner",
          "type": "address"
        },
        {
          "indexed": false,
          "internalType": "uint256",
          "name": "_thc",
          "type": "uint256"
        },
        {
          "indexed": false,
          "internalType": "uint256",
          "name": "_cbd",
          "type": "uint256"
        }
      ],
      "name": "AddPlant",
      "type": "event"
    },
    {
      "constant": true,
      "inputs": [
        {
          "internalType": "address",
          "name": "",
          "type": "address"
        }
      ],
      "name": "nonces",
      "outputs": [
        {
          "internalType": "uint256",
          "name": "",
          "type": "uint256"
        }
      ],
      "payable": false,
      "stateMutability": "view",
      "type": "function"
    },
    {
      "constant": true,
      "inputs": [
        {
          "internalType": "address",
          "name": "_address",
          "type": "address"
        }
      ],
      "name": "getNonce",
      "outputs": [
        {
          "internalType": "uint256",
          "name": "nonce",
          "type": "uint256"
        }
      ],
      "payable": false,
      "stateMutability": "view",
      "type": "function"
    },
    {
      "constant": false,
      "inputs": [
        {
          "internalType": "address",
          "name": "userAddress",
          "type": "address"
        },
        {
          "internalType": "uint256",
          "name": "_thc",
          "type": "uint256"
        },
        {
          "internalType": "uint256",
          "name": "_cbd",
          "type": "uint256"
        },
        {
          "internalType": "bytes32",
          "name": "r",
          "type": "bytes32"
        },
        {
          "internalType": "bytes32",
          "name": "s",
          "type": "bytes32"
        },
        {
          "internalType": "uint8",
          "name": "v",
          "type": "uint8"
        }
      ],
      "name": "addPlantMeta",
      "outputs": [
        {
          "internalType": "uint256",
          "name": "",
          "type": "uint256"
        }
      ],
      "payable": false,
      "stateMutability": "nonpayable",
      "type": "function"
    },
    {
      "constant": false,
      "inputs": [
        {
          "internalType": "address",
          "name": "_owner",
          "type": "address"
        },
        {
          "internalType": "uint256",
          "name": "_thc",
          "type": "uint256"
        },
        {
          "internalType": "uint256",
          "name": "_cbd",
          "type": "uint256"
        }
      ],
      "name": "addPlant",
      "outputs": [
        {
          "internalType": "uint256",
          "name": "",
          "type": "uint256"
        }
      ],
      "payable": false,
      "stateMutability": "nonpayable",
      "type": "function"
    },
    {
      "constant": true,
      "inputs": [
        {
          "internalType": "uint256",
          "name": "_id",
          "type": "uint256"
        }
      ],
      "name": "getPlant",
      "outputs": [
        {
          "internalType": "address",
          "name": "owner",
          "type": "address"
        },
        {
          "internalType": "uint256",
          "name": "thc",
          "type": "uint256"
        },
        {
          "internalType": "uint256",
          "name": "cbd",
          "type": "uint256"
        }
      ],
      "payable": false,
      "stateMutability": "view",
      "type": "function"
    },
    {
      "constant": true,
      "inputs": [],
      "name": "getLastId",
      "outputs": [
        {
          "internalType": "uint256",
          "name": "",
          "type": "uint256"
        }
      ],
      "payable": false,
      "stateMutability": "view",
      "type": "function"
    },
    {
      "constant": true,
      "inputs": [],
      "name": "listPlants",
      "outputs": [
        {
          "components": [
            {
              "internalType": "uint256",
              "name": "id",
              "type": "uint256"
            },
            {
              "internalType": "address",
              "name": "owner",
              "type": "address"
            },
            {
              "internalType": "uint256",
              "name": "thc",
              "type": "uint256"
            },
            {
              "internalType": "uint256",
              "name": "cbd",
              "type": "uint256"
            }
          ],
          "internalType": "struct PlantManager.PlantStruct[]",
          "name": "",
          "type": "tuple[]"
        }
      ],
      "payable": false,
      "stateMutability": "view",
      "type": "function"
    }
  ],
  "bytecode": "0x60806040526040518060800160405280605281526020016200123260529139805190602001206040518060400160405280600c81526020017f506c616e744d616e616765720000000000000000000000000000000000000000815250805190602001206040518060400160405280600181526020017f3100000000000000000000000000000000000000000000000000000000000000815250805190602001206201388130604051602001620000ba95949392919062000122565b60405160208183030381529060405280519060200120600155348015620000e057600080fd5b506000600381905550620001e0565b620000fa816200017f565b82525050565b6200010b8162000193565b82525050565b6200011c81620001cc565b82525050565b600060a08201905062000139600083018862000100565b62000148602083018762000100565b62000157604083018662000100565b62000166606083018562000111565b620001756080830184620000ef565b9695505050505050565b60006200018c826200019d565b9050919050565b6000819050919050565b600073ffffffffffffffffffffffffffffffffffffffff82169050919050565b600062ffffff82169050919050565b6000620001d982620001bd565b9050919050565b61104280620001f06000396000f3fe608060405234801561001057600080fd5b506004361061007d5760003560e01c8063b15e4a461161005b578063b15e4a4614610100578063eb1d0f2814610130578063ed0b1f5f14610160578063f0b7526d146101925761007d565b80632d0335ab146100825780637ecebe00146100b2578063a8e5862d146100e2575b600080fd5b61009c600480360361009791908101906109a2565b6101b0565b6040516100a99190610e74565b60405180910390f35b6100cc60048036036100c791908101906109a2565b6101f8565b6040516100d99190610e74565b60405180910390f35b6100ea610210565b6040516100f79190610e74565b60405180910390f35b61011a600480360361011591908101906109cb565b61021a565b6040516101279190610e74565b60405180910390f35b61014a60048036036101459190810190610a1a565b610362565b6040516101579190610e74565b60405180910390f35b61017a60048036036101759190810190610aa3565b61071c565b60405161018993929190610d3f565b60405180910390f35b61019a61080d565b6040516101a79190610d76565b60405180910390f35b60008060008373ffffffffffffffffffffffffffffffffffffffff1673ffffffffffffffffffffffffffffffffffffffff168152602001908152602001600020549050919050565b60006020528060005260406000206000915090505481565b6000600354905090565b60006001600354016003819055506102306108e0565b604051806080016040528060035481526020018673ffffffffffffffffffffffffffffffffffffffff168152602001858152602001848152509050600281908060018154018082558091505090600182039060005260206000209060040201600090919290919091506000820151816000015560208201518160010160006101000a81548173ffffffffffffffffffffffffffffffffffffffff021916908373ffffffffffffffffffffffffffffffffffffffff16021790555060408201518160020155606082015181600301555050508473ffffffffffffffffffffffffffffffffffffffff167fcf0b91c7e38ca6b11c6a4b92fc71ee22ab70d63e2b6a925d5ba3f92eda680fc3600354868660405161034d93929190610e8f565b60405180910390a26003549150509392505050565b600061036c61091e565b60405180604001604052806000808b73ffffffffffffffffffffffffffffffffffffffff1673ffffffffffffffffffffffffffffffffffffffff1681526020019081526020016000205481526020018973ffffffffffffffffffffffffffffffffffffffff16815250905060006001546040518060600160405280602b8152602001610fd5602b9139805190602001208360000151846020015160405160200161041893929190610d98565b6040516020818303038152906040528051906020012060405160200161043f929190610d08565b604051602081830303815290604052805190602001209050600073ffffffffffffffffffffffffffffffffffffffff168973ffffffffffffffffffffffffffffffffffffffff1614156104c7576040517f08c379a00000000000000000000000000000000000000000000000000000000081526004016104be90610e54565b60405180910390fd5b600181858888604051600081526020016040526040516104ea9493929190610dcf565b6020604051602081039080840390855afa15801561050c573d6000803e3d6000fd5b5050506020604051035173ffffffffffffffffffffffffffffffffffffffff168973ffffffffffffffffffffffffffffffffffffffff1614610583576040517f08c379a000000000000000000000000000000000000000000000000000000000815260040161057a90610e14565b60405180910390fd5b6001600354016003819055506105976108e0565b604051806080016040528060035481526020018b73ffffffffffffffffffffffffffffffffffffffff1681526020018a8152602001898152509050600281908060018154018082558091505090600182039060005260206000209060040201600090919290919091506000820151816000015560208201518160010160006101000a81548173ffffffffffffffffffffffffffffffffffffffff021916908373ffffffffffffffffffffffffffffffffffffffff16021790555060408201518160020155606082015181600301555050506000808b73ffffffffffffffffffffffffffffffffffffffff1673ffffffffffffffffffffffffffffffffffffffff168152602001908152602001600020600081548092919060010191905055508973ffffffffffffffffffffffffffffffffffffffff167fcf0b91c7e38ca6b11c6a4b92fc71ee22ab70d63e2b6a925d5ba3f92eda680fc36003548b8b60405161070293929190610e8f565b60405180910390a260035493505050509695505050505050565b6000806000808411801561073257506003548411155b610771576040517f08c379a000000000000000000000000000000000000000000000000000000000815260040161076890610e34565b60405180910390fd5b60006001850390506002818154811061078657fe5b906000526020600020906004020160010160009054906101000a900473ffffffffffffffffffffffffffffffffffffffff169350600281815481106107c757fe5b9060005260206000209060040201600201549250600281815481106107e857fe5b9060005260206000209060040201600301549150838383935093509350509193909250565b60606002805480602002602001604051908101604052809291908181526020016000905b828210156108d75783829060005260206000209060040201604051806080016040529081600082015481526020016001820160009054906101000a900473ffffffffffffffffffffffffffffffffffffffff1673ffffffffffffffffffffffffffffffffffffffff1673ffffffffffffffffffffffffffffffffffffffff1681526020016002820154815260200160038201548152505081526020019060010190610831565b50505050905090565b604051806080016040528060008152602001600073ffffffffffffffffffffffffffffffffffffffff16815260200160008152602001600081525090565b604051806040016040528060008152602001600073ffffffffffffffffffffffffffffffffffffffff1681525090565b60008135905061095d81610f78565b92915050565b60008135905061097281610f8f565b92915050565b60008135905061098781610fa6565b92915050565b60008135905061099c81610fbd565b92915050565b6000602082840312156109b457600080fd5b60006109c28482850161094e565b91505092915050565b6000806000606084860312156109e057600080fd5b60006109ee8682870161094e565b93505060206109ff86828701610978565b9250506040610a1086828701610978565b9150509250925092565b60008060008060008060c08789031215610a3357600080fd5b6000610a4189828a0161094e565b9650506020610a5289828a01610978565b9550506040610a6389828a01610978565b9450506060610a7489828a01610963565b9350506080610a8589828a01610963565b92505060a0610a9689828a0161098d565b9150509295509295509295565b600060208284031215610ab557600080fd5b6000610ac384828501610978565b91505092915050565b6000610ad88383610c86565b60808301905092915050565b610aed81610f1b565b82525050565b610afc81610f1b565b82525050565b6000610b0d82610ed6565b610b178185610eee565b9350610b2283610ec6565b8060005b83811015610b53578151610b3a8882610acc565b9750610b4583610ee1565b925050600181019050610b26565b5085935050505092915050565b610b6981610f2d565b82525050565b610b80610b7b82610f2d565b610f6e565b82525050565b6000610b93601283610eff565b91507f696e76616c69642d7369676e61747572657300000000000000000000000000006000830152602082019050919050565b6000610bd3600a83610eff565b91507f696e76616c6964206964000000000000000000000000000000000000000000006000830152602082019050919050565b6000610c13600283610f10565b91507f19010000000000000000000000000000000000000000000000000000000000006000830152600282019050919050565b6000610c53601183610eff565b91507f696e76616c69642d616464726573732d300000000000000000000000000000006000830152602082019050919050565b608082016000820151610c9c6000850182610cdb565b506020820151610caf6020850182610ae4565b506040820151610cc26040850182610cdb565b506060820151610cd56060850182610cdb565b50505050565b610ce481610f57565b82525050565b610cf381610f57565b82525050565b610d0281610f61565b82525050565b6000610d1382610c06565b9150610d1f8285610b6f565b602082019150610d2f8284610b6f565b6020820191508190509392505050565b6000606082019050610d546000830186610af3565b610d616020830185610cea565b610d6e6040830184610cea565b949350505050565b60006020820190508181036000830152610d908184610b02565b905092915050565b6000606082019050610dad6000830186610b60565b610dba6020830185610cea565b610dc76040830184610af3565b949350505050565b6000608082019050610de46000830187610b60565b610df16020830186610cf9565b610dfe6040830185610b60565b610e0b6060830184610b60565b95945050505050565b60006020820190508181036000830152610e2d81610b86565b9050919050565b60006020820190508181036000830152610e4d81610bc6565b9050919050565b60006020820190508181036000830152610e6d81610c46565b9050919050565b6000602082019050610e896000830184610cea565b92915050565b6000606082019050610ea46000830186610cea565b610eb16020830185610cea565b610ebe6040830184610cea565b949350505050565b6000819050602082019050919050565b600081519050919050565b6000602082019050919050565b600082825260208201905092915050565b600082825260208201905092915050565b600081905092915050565b6000610f2682610f37565b9050919050565b6000819050919050565b600073ffffffffffffffffffffffffffffffffffffffff82169050919050565b6000819050919050565b600060ff82169050919050565b6000819050919050565b610f8181610f1b565b8114610f8c57600080fd5b50565b610f9881610f2d565b8114610fa357600080fd5b50565b610faf81610f57565b8114610fba57600080fd5b50565b610fc681610f61565b8114610fd157600080fd5b5056fe4d6574615472616e73616374696f6e2875696e74323536206e6f6e63652c616464726573732066726f6d29a365627a7a72315820e3def3b85e14885793cae00ce0d5385008ed20cff66edba3353d108d676314a66c6578706572696d656e74616cf564736f6c63430005100040454950373132446f6d61696e28737472696e67206e616d652c737472696e672076657273696f6e2c75696e7432353620636861696e49642c6164647265737320766572696679696e67436f6e747261637429",
  "source": "pragma solidity 0.5.16;\r\npragma experimental ABIEncoderV2;\r\n\r\ncontract PlantManager {\r\n\r\n  struct EIP712Domain {\r\n      string name;\r\n      string version;\r\n      uint256 chainId;\r\n      address verifyingContract;\r\n  }\r\n\r\n  struct MetaTransaction {\r\n      uint256 nonce;\r\n      address from;\r\n  }\r\n\r\n  mapping(address => uint256) public nonces;\r\n\r\n  bytes32 internal constant EIP712_DOMAIN_TYPEHASH = keccak256(bytes(\"EIP712Domain(string name,string version,uint256 chainId,address verifyingContract)\"));\r\n  bytes32 internal constant META_TRANSACTION_TYPEHASH = keccak256(bytes(\"MetaTransaction(uint256 nonce,address from)\"));\r\n  bytes32 internal DOMAIN_SEPARATOR = keccak256(abi.encode(\r\n      EIP712_DOMAIN_TYPEHASH,\r\n      keccak256(bytes(\"PlantManager\")),\r\n      keccak256(bytes(\"1\")),\r\n      80001, // Matic Mumbai\r\n      address(this)\r\n  ));  \r\n\r\n  struct PlantStruct {\r\n    uint256 id;\r\n    address owner;\r\n    uint256 thc;\r\n    uint256 cbd;\r\n  }\r\n  PlantStruct[] plantsList;\r\n\r\n  uint256 private lastId;\r\n\r\n  constructor() public {\r\n      lastId = 0;\r\n  }\r\n\r\n  event AddPlant (uint256 _id, address indexed _owner, uint256 _thc, uint256 _cbd);\r\n\r\n  function getNonce(address _address) public view returns (uint256 nonce)\r\n  {\r\n      nonce = nonces[_address];\r\n  }\r\n\r\n  function addPlantMeta (address userAddress, uint256 _thc, uint256 _cbd, bytes32 r, bytes32 s, uint8 v) \r\n    public returns (uint256) {\r\n\r\n    MetaTransaction memory metaTx = MetaTransaction({nonce: nonces[userAddress],from: userAddress});\r\n\r\n    bytes32 digest = keccak256(\r\n        abi.encodePacked(\r\n            \"\\x19\\x01\",\r\n            DOMAIN_SEPARATOR,\r\n            keccak256(abi.encode(META_TRANSACTION_TYPEHASH, metaTx.nonce, metaTx.from))\r\n        )\r\n    );\r\n\r\n    require(userAddress != address(0), \"invalid-address-0\");\r\n    require(userAddress == ecrecover(digest, v, r, s), \"invalid-signatures\");    \r\n\r\n    lastId = lastId+1;\r\n\r\n    PlantStruct memory plant = PlantStruct({\r\n        id: lastId,\r\n        owner: userAddress,\r\n        thc: _thc,\r\n        cbd: _cbd\r\n    });\r\n    plantsList.push(plant);\r\n\r\n    nonces[userAddress]++;\r\n\r\n    emit AddPlant(lastId, userAddress, _thc, _cbd);\r\n    return lastId;\r\n  }\r\n\r\n  function addPlant (address _owner, uint256 _thc, uint256 _cbd) \r\n    public returns (uint256) {\r\n        \r\n    lastId = lastId+1;\r\n\r\n    PlantStruct memory plant = PlantStruct({\r\n        id: lastId,\r\n        owner: _owner,\r\n        thc: _thc,\r\n        cbd: _cbd\r\n    });\r\n    plantsList.push(plant);\r\n\r\n    emit AddPlant(lastId, _owner, _thc, _cbd);\r\n    return lastId;\r\n  }\r\n\r\n  function getPlant (uint256 _id) public view \r\n    returns (address owner, uint256 thc, uint256 cbd) {\r\n        require ( (_id > 0) && (_id <= lastId), \"invalid id\");\r\n        uint256 index = _id - 1; \r\n      owner = plantsList[index].owner;\r\n      thc = plantsList[index].thc;\r\n      cbd = plantsList[index].cbd;\r\n      return (owner, thc, cbd);\r\n  }\r\n  \r\n  function getLastId() public view returns (uint256) {\r\n      return (lastId);\r\n  }\r\n  \r\n  function listPlants() public view returns (PlantStruct[]memory) {\r\n      return plantsList;\r\n  }\r\n}\r\n",
  "sourcePath": "C:\\ETH\\chainnabis\\contracts\\PlantManager.sol",
  "compiler": {
    "name": "solc",
    "version": "0.5.16+commit.9c3226ce.Emscripten.clang"
  },
  "schemaVersion": "3.2.2",
  "updatedAt": "2020-10-23T03:19:56.833Z",
  "networkType": "ethereum",
  "devdoc": {
    "methods": {}
  },
  "userdoc": {
    "methods": {}
  }
}